:020000040800F2
:1010000000001420F950000889280008E940000871
:1010100089280008892800088928000800000000A5
:101020000000000000000000000000008928000807
:10103000892800080000000089280008855400085D
:10104000892800088928000800000000000000002E
:101050000000000089280008193D000889280008C0
:10106000892800088928000889280008892800089C
:10107000892800088928000889280008892800088C
:10108000892800088928000889280008892800087C
:10109000892800088928000889280008892800086C
:1010A000892800088928000889280008892800085C
:1010B000892800088928000889280008892800084C
:1010C000892800088928000889280008892800083C
:1010D00089280008892800088928000891580008F4
:1010E000892800088928000889280008892800081C
:1010F000892800088928000889280008892800080C
:1011000089280008892800088928000889280008FB
:1011100089280008000000008928000889280008A4
:1011200089280008892800088928000889280008DB
:1011300089280008892800088928000889280008CB
:1011400089280008892800088928000889280008BB
:1011500089280008892800088928000889280008AB
:10116000892800088928000800000000000000000D
:1011700089280008000000008928000800000000FD
:101180008928000889280008892800080000000034
:101190008928000800000000000000000000000096
:1011A0003546000800000000ED1F000800000000A8
:1011B0006D280008892800080000000000000000D9
:1011C00089280008000000008928000800000000AD
:1011D000000000000000000000000000000000000F
:1011E00000000000000000000000000000000000FF
:1011F0000000000089280008000000000000000036
:10120000DFF80CD000F0BAF80048004789760408EF
:10121000000014202DE9F05F0546002092469B4611
:1012200088460646814640241BE0284641464746FC
:10123000224600F092F853465A46C01A914110D304
:1012400011461846224600F079F82D1A67EB01087E
:101250004F4622460120002100F070F817EB0009EC
:101260004E41201EA4F10104DFDC484631462A46E7
:101270004346BDE8F09F2DE9F0410024061B2546BA
:1012800071F1000605DA01240027D0EB070067EBB7
:101290000101161E73F1000605DA0027D2EB0702E2
:1012A000012567EB0303FFF7B5FF86460E46174699
:1012B0009C46AC4204D00025D0EB050E65EB010640
:1012C00024B10020D2EB000760EB030C70463146DE
:1012D0003A466346BDE8F08110B5431A934209D2FD
:1012E0008318881803E010F8011D03F8011D521E31
:1012F000F9D210BD40EA01039B0703D009E008C9F9
:10130000121F08C0042AFAD203E011F8013B00F8CA
:10131000013B521EF9D210BDD2B201E000F8012B00
:10132000491EFBD270470022F6E710B513460A4665
:1013300004461946FFF7F0FF204610BD202A04DBC3
:10134000203A00FA02F1002070479140C2F12003D8
:1013500020FA03F3194390407047202A04DB203A17
:1013600021FA02F00021704721FA02F3D040C2F1C5
:10137000200291400843194670470000064C074D73
:1013800006E0E06840F0010394E807009847103455
:10139000AC42F6D3FFF738FF88E66908A8E669088B
:1013A0002DE9F04196B0159014911392129315986F
:1013B000407822F0F5FA02F085FD1190129840B1C4
:1013C000FFE71398129A1168526824F027FB0C90DB
:1013D00006E013980022114624F020FB0C90FFE752
:1013E0000C981090149840B1FFE71598149A116862
:1013F000526824F013FB0B9006E01598002211466A
:1014000024F00CFB0B90FFE70B980F90129858B14B
:10141000FFE713988088099012981DF0A7FF0146F6
:101420000998401A0A9002E000200A90FFE70A9803
:10143000ADF83A00149890B1FFE714981DF096FFAC
:10144000ADF8360014981DF077FFADF8340015980C
:101450008088BDF83610401AADF838000BE01598BA
:101460008088ADF836001598C088ADF834000020AB
:10147000ADF83800FFE740F29030C2F2000000689B
:10148000D0F804C0109A119BBDF83AE00F9DBDF84A
:101490003860BDF83670BDF834806C460021E161DB
:1014A000A161C4F814802761E660A3606560C4F898
:1014B00000E0E04716B0BDE8F0810000B0B588B0AC
:1014C0009C4696460C46054613981298119810991A
:1014D0000F9A0E9B0D9B0C9B06950594CDF810E082
:1014E000CDF80CC0ADF80A30ADF80820ADF8061004
:1014F000ADF8040006980BF0CDF90090009820B9E3
:10150000FFE700208DF81F002EE0009900200870F2
:1015100005980099487004980099C860039800994C
:101520000871BDF80A00009988820D980099086139
:101530000E9800990872BDF808000099C882BDF89D
:10154000060000990883BDF80400009948831298AA
:101550000099C861139800990862069800994EF0A6
:10156000DFFA8DF81F00FFE79DF81F0008B0B0BD3F
:1015700080B586B004900391029204980BF08AF92A
:101580000190019820B9FFE700208DF817000FE0C7
:1015900001990420087003980199C8610298019983
:1015A0000862049801994EF0BBFA8DF81700FFE726
:1015B0009DF8170006B080BD80B58CB006900591EF
:1015C000069800EB400148F2DC30C0F6050000EB65
:1015D000C10004900498007800F00F00022804D0A5
:1015E000FFE700208DF81F00C7E00020039004985B
:1015F000017D01200129019008D0FFE70498007DBA
:101600000338B0FA80F040090190FFE7019800F03C
:1016100001008DF80B009DF80B00C007B8B1FFE783
:101620000598049991F9111088420AD3FFE70498AC
:10163000407A411E012000FA01F10398084303900B
:1016400004E0049890F911000590FFE7FFE7049883
:10165000007D01280CDCFFE70598049991F9112021
:10166000801A097CB0FBF1F10398084303905EE017
:101670000498007D032838DCFFE70498007C0228EA
:1016800032D1FFE70598049991F9111088422BD9BE
:10169000FFE7049890F911000890089820B9FFE737
:1016A00020208DF8270005E00898B0FA80F08DF82A
:1016B0002700FFE79DF82700009005980A900A98F8
:1016C00020B9FFE720208DF82F0005E00A98B0FA36
:1016D00080F08DF82F00FFE700989DF82F10411A39
:1016E000039808430390FFE720E00498007D042856
:1016F0001BD1FFE7059804990B7CA3F1200200FAA7
:1017000002FCC3F1200120FA01F1002A58BF614612
:101710009840002A58BF002048F28042C0F21E02C2
:101720000023FFF777FD0390FFE7FFE7FFE703984C
:101730000499497AC1F120024FF0FF31D14088422B
:1017400004D9FFE700208DF81F0016E00498C06858
:10175000006804990B7A4A7AC2F1200C4FF0FF32EC
:1017600022FA0CF29A409043039A9A401043C968B7
:10177000086001208DF81F00FFE79DF81F000CB0E6
:1017800080BD000080B588B006908DF817100698CF
:1017900000EB400148F2DC30C0F6050000EBC10070
:1017A00004900498007800F00F00022804DBFFE7A3
:1017B00000208DF81F0083E00498407A20B9FFE7ED
:1017C00001208DF81F007BE09DF8170000F001005C
:1017D00001900498007800F00F0100200129029088
:1017E00006D1FFE70498007C80F001000290FFE73B
:1017F0000198029901F0010190EA010F0AD0FFE778
:101800000498027A012101FA02F2C16808681043C3
:10181000086009E00498027A012101FA02F2C16825
:10182000086890430860FFE7069816280ED1FFE786
:1018300043F6E401C4F2020100913F200860012058
:1018400003F044FF009900200860FFE70498017846
:101850000020B0EB111F04D1FFE701208DF81F001D
:101860002EE00498007800098DF80F00FFE7049837
:10187000C06800680499097A0131C84000F001008D
:101880009DF8171001F00101884204D1FFE7012003
:101890008DF81F0014E09DF80F00002818BF4FF4CA
:1018A0007A7003F013FFFFE79DF80F00411E8DF8DB
:1018B0000F100028DBD1FFE700208DF81F00FFE7A5
:1018C0009DF81F0008B080BD80B58EB00C900C98BC
:1018D00000EB400148F2DC30C0F6050000EBC1002F
:1018E0000B900B98007800F00F000146039104283C
:1018F00000F2B7800399DFE801F01B033354A10025
:101900000B98C06801680B98027A007CD14048406F
:10191000C043C00730B1FFE70B980079FFF7D4FF51
:10192000029002E000200290FFE702980D909CE0F8
:101930000B98407A50B1FFE70B98C06800680B998C
:10194000097A0131C840C00720B1FFE70B98006950
:10195000019002E000200190FFE701980D9084E0E3
:101960000C9800F085F80A900B980079FFF7ACFF0F
:1019700009900B98007D04280DD1FFE7099848F2E3
:101980008041C0F21E01A0FB01010A9A0023FFF76B
:1019900041FC0D9069E009980A99B0FBF1F00D90B7
:1019A00063E00C9800F008F908900B980079FFF7B5
:1019B0008BFF0021079106900B98007D012838D1FC
:1019C000FFE706980799089AA0FB020301FB023182
:1019D00048F28042C0F21E020023FFF71BFC079171
:1019E00006900B98407C70B1FFE70B9890F91100BE
:1019F000FFF76AFF024606990798891840F1000030
:101A000006910790FFE7069A48F21F50C5F2EB10C7
:101A1000A2FB00104009642100FB112005900698EC
:101A2000059A801A00F16401282A88BF08460D90A3
:101A30001BE00698089948430D9016E00C9800F0BA
:101A40000FF904900498242803D1FFE700200090A8
:101A500004E00498FFF738FF0090FFE700980D902E
:101A600003E0FFE700200D90FFE70D980EB080BD6A
:101A700088B00690069800EB400148F2DC30C0F6D2
:101A8000050000EBC10005900598007800F00F00FC
:101A9000022803D0FFE70020079089E00598C0687E
:101AA000006805990A7A497AD040C1F120024FF0C6
:101AB000FF31D140084004900598017D01200129A3
:101AC000009008D0FFE70598007D0338B0FA80F059
:101AD00040090090FFE7009800F001008DF80F002A
:101AE0009DF80F00C007B0B1FFE704980599497A47
:101AF0000139C84018B9FFE70120079058E0059860
:101B0000407AC0F121014FF0FF3020FA01F1049832
:101B100008400490FFE70598007D01280ADCFFE7F4
:101B20000598007C0499059A92F9112000FB012088
:101B300004903AE00598007D032819DCFFE705983A
:101B400090F91100029000200190FFE7019804999C
:101B500088420AD2FFE70598017C02984843029028
:101B6000FFE7019801300190F0E7029804901BE034
:101B70000598007D042816D1FFE7049848F28041BB
:101B8000C0F21E01A0FB0101059A127CD040C2F1F7
:101B9000200301FA03F31843203AD140002A58BF2A
:101BA00008460490FFE7FFE7FFE704980790FFE788
:101BB000079808B07047000084B00290029800EBCC
:101BC000400148F2DC30C0F6050000EBC100019096
:101BD0000198007800F00F00032803D0FFE70020F1
:101BE000039039E00198C068006801990A7A497A3F
:101BF000D040C1F120024FF0FF31D14008400090A9
:101C00000198007D48B9FFE7019A107C009992F98C
:101C1000112000FB012003901EE00198007D0128A7
:101C200016D1FFE7009848F28041C0F21E01A0FBE8
:101C30000101019A127CD040C2F1200301FA03F3A2
:101C40001843203AD140002A58BF0846039003E0C9
:101C5000FFE700200390FFE7039804B070470000FF
:101C600084B00290029800EB400148F2DC30C0F6EC
:101C7000050000EBC10001900198007800F00F0012
:101C8000042803D0FFE7242003901FE00198C068D8
:101C9000006801990A7A497AD040C1F120024FF0D8
:101CA000FF31D14008408DF803009DF803000199F1
:101CB0000979884203DDFFE72420039006E00198BC
:101CC0009DF803100844007C0390FFE7039804B0DC
:101CD0007047000080B586B004900391049800EB33
:101CE000400148F2DC30C0F6050000EBC100029074
:101CF0000298007800F00F00032804D0FFE70020CE
:101D00008DF8170063E0002001900298007D50B923
:101D1000FFE70398029991F91120801A097CB0FB22
:101D2000F1F001903CE00298007D012837D1FFE7F7
:101D30000298407CC0B1FFE703984DF68361C4F27E
:101D40001B31A0FB0110C00C0090029890F911000B
:101D50000099FFF7BFFF009843F6095141430398EC
:101D6000A0EBC1100390FFE7039802990B7CA3F14D
:101D7000200200FA02FCC3F1200120FA01F1002A3E
:101D800058BF61469840002A58BF002048F2804260
:101D9000C0F21E020023FFF73DFA0190FFE7FFE7C4
:101DA0000298C068006802990B7A4A7AC2F1200C46
:101DB0004FF0FF3222FA0CF29A409043019A9A4077
:101DC0001043C968086001208DF81700FFE79DF8EF
:101DD000170006B080BD000080B586B00490039166
:101DE000049800EB400148F2DC30C0F6050000EB3F
:101DF000C10002900298007800F00F00042804D07F
:101E0000FFE700208DF8170068E000200190FFE751
:101E100001980299097988425CD2FFE702980199FA
:101E20000844007C039988424FD1FFE70298C068BC
:101E3000006802990B7A4A7AC2F1200C4FF0FF3207
:101E400022FA0CF29A409043019A9A401043C968D2
:101E50000860029801780020B0EB111F04D1FFE761
:101E600001208DF8170039E00298007800098DF8FC
:101E70000300FFE70298C068006802990A7A497A6D
:101E80000A44D040C1F120024FF0FF31D140084058
:101E90000199884204D1FFE701208DF817001DE069
:101EA0009DF80300002818BF4FF47A7003F00EFC71
:101EB000FFE79DF80300411E8DF803100028D9D1DB
:101EC000FFE700208DF8170008E0FFE701980130D8
:101ED00001909DE700208DF81700FFE79DF817009F
:101EE00006B080BD81B0009000998869032262F33A
:101EF0001B508861012001B07047000080B584B09C
:101F00000290019140F22810C2F200000090009867
:101F100000F0BCFC0099C86940F4FF70C8610099EA
:101F2000C86940F4FF30C8610099002081F824009E
:101F3000009940F2D830C2F200000862009800F028
:101F40001FF820B9FFE700208DF80F0014E000987B
:101F5000FFF7C8FF20B9FFE700208DF80F000BE066
:101F600000980299019A01F0CFFC0098D0F8A810CF
:101F700088478DF80F00FFE79DF80F0004B080BD83
:101F800081B00090002001B07047000084B0029042
:101F90000191019840780009C00720B1FFE70020B7
:101FA0008DF80F001DE0019800780299C96A088039
:101FB00000200090FFE700980199498888420CDAD8
:101FC000FFE7019840680099405C0299096B08801E
:101FD000FFE7009801300090EDE701208DF80F0039
:101FE000FFE79DF80F0004B07047000080B582B095
:101FF0004BF20801C4F202013F20086040F2D830E1
:10200000C2F2080000680190019808B9FFE72BE0D0
:10201000019890F88C1401EBC10100EB81000C30A9
:1020200000900098C06920B1FFE70098C169884717
:10203000FFE7019800990AF06FFFFFE7019890F819
:102040008D0488B1FFE7019890F88C1401EBC10171
:1020500000EB81000C300090019800994BF03CF9A6
:1020600008B1FFE700E0E9E702B080BD80B588B0C5
:102070008DF81F000920FFF7F3FD06900220FFF7FF
:10208000EFFD059043F61440C4F20200016804918C
:10209000006843F6F0710840039000208DF80B00B3
:1020A000FFE79DF80B00C00740B1FFE70599092045
:1020B000FFF792FE039803F0EDFCFFE79DF80B009D
:1020C000C00788B1FFE703F0B9FA032001900021AF
:1020D000FFF758FB9DF81F100820FFF76DFA0198D5
:1020E0000121FFF74FFBFFE79DF80B00C00740B150
:1020F000FFE706990920FFF76FFE049803F0CAFC7A
:10210000FFE79DF80B00C00778B9FFE709200090B2
:10211000FFF7A6FD01460098FFF75EFE049803F066
:10212000B9FC01208DF80B00BBE703F087FA08B07B
:1021300080BD000081B0009000998869032262F39D
:102140001B508861012001B07047000080B584B049
:102150000290019140F2E010C2F20000009000985D
:1021600000F040FE0099C86940F4FF70C861009912
:10217000C86940F4FF30C8610099002081F824004C
:10218000009940F2DC30C2F200000862009800F0D2
:102190001FF820B9FFE700208DF80F0014E0009829
:1021A000FFF7C8FF20B9FFE700208DF80F000BE014
:1021B00000980299019A01F0A7FB0098D0F8A810A6
:1021C00088478DF80F00FFE79DF80F0004B080BD31
:1021D00080B586B0059005986A4678215160142133
:1021E00003911160012204920523114601F066FC5F
:1021F00003990498059B9A6947F2305C6CF31302CB
:102200009A61059A1171059A5021D180059A4FF46F
:1022100048711181059A64215181059A06219173B3
:10222000059A1182059A4FF4F0715182059A08219E
:102230009182059A9169022363F31B51916106B063
:1022400080BD000080B582B001902020FFF73CFBEC
:1022500046F60041C0F2DC21884218D0FFE7172083
:1022600042F20001C0F2A171FFF734FD1B20009083
:1022700044F60001C0F2E811FFF79EF90099202012
:10228000FFF7AAFD16200121FFF77CFAFFE72020C7
:102290001B21FFF7A1FD4120012102F091FD46F233
:1022A0003441C4F20101086840F08070086002B057
:1022B00080BD000080B584B002900298006A019051
:1022C0000298406A0090FFE700980068FF281CD041
:1022D000FFE70098006828B9FFE70098808803F0BE
:1022E000E5F90EE00198D0F808C0009B19689A68DB
:1022F0009B88E04720B9FFE700208DF80F0008E039
:10230000FFE700980C300090DEE701208DF80F0009
:10231000FFE79DF80F0004B080BD000080B582B0DB
:102320000190009101984021FEF7FDFF019944F2D0
:10233000C120C0F600000860019945F2B130C0F636
:1023400000004860019945F69910C0F600008860C9
:10235000019944F60170C0F60000C86001994EF280
:102360000020C0F204000861019944F620608882D0
:1023700001994FF47A70C882019A918B21F006017D
:102380009183019A918B41F020019183019A918B65
:1023900041F0010191830099019AD163019A1421BE
:1023A000517601994883012002B080BD81B0009030
:1023B00000988069C0F3075003280FD0FFE7009909
:1023C0008869032262F31B5088610098016A888B38
:1023D00020F4707000F5A0708883FFE7012001B041
:1023E0007047000080B588B0069005919DF81000F8
:1023F00000F0F00001308DF810009DF8100000F0A2
:102400000F008DF810009DF8110000F0FC008DF811
:1024100011009DF8110000F0F30004308DF8110058
:102420009DF8110000F0CF0010308DF811000499D4
:102430000120029001F05AFE1821C4F202014FF46B
:102440000030086040F29820C2F200000390039828
:1024500040F25031C2F2000100F0B8FF029A039935
:10246000C8692F2363F34800C8610399C8692D2305
:1024700063F35020C86103986946C8234B60142356
:102480000B60114601F01AFB0398002101F010F8CF
:102490000399086003980068013020B9FFE7002025
:1024A0008DF81F001DE0039800F0CCF920B9FFE77C
:1024B00000208DF81F0014E00398FFF777FF20B984
:1024C000FFE700208DF81F000BE003980699059A9E
:1024D00001F01AFA0398D0F8A81088478DF81F0069
:1024E000FFE79DF81F0008B080BD000080B588B0F0
:1024F00006908DF817100698FFF7A4FE42200121E0
:1025000002F05EFC0698006A04900498808B4009F3
:10251000C007002800F09880FFE70698008904991A
:10252000C8839DF81700049900F0010291F821007A
:1025300000F0FE00104481F821009DF81700049976
:1025400000F0010291F8210000F0FD0040EA420095
:1025500081F821009DF81700049900F0010291F81C
:10256000210000F0FB0040EA820081F821009DF884
:102570001700049900F0010291F8210000F0F70023
:1025800040EAC20081F821009DF81700049900F08C
:10259000010291F8210000F0EF0040EA021081F8FA
:1025A00021009DF81700049900F0010291F8210024
:1025B00000F0DF0040EA421081F821009DF817008A
:1025C000049900F0010291F8210000F0BF0040EAF8
:1025D000821081F821009DF81720049991F82100BC
:1025E00000F07F0040EAC21081F821009DF817003A
:1025F000049900F0010291F8220000F0FE0010445E
:1026000081F822009DF81700049900F0010291F86A
:10261000220000F0FD0040EA420081F822009DF80F
:102620001700049900F0010291F8220000F0FB006D
:1026300040EA820081F82200049991F8200040F0DD
:10264000800081F82000E6E01F20FFF73DF944F606
:10265000D351C1F26201A0FB0110800903900498DC
:102660000069C00802900499888C40F0020020F0B4
:1026700001008884049991F8260040F0010081F857
:102680002600049991F8260040F0020081F8260007
:10269000049991F8260040F0040081F8260004997E
:1026A00091F8260040F0080081F82600049991F87E
:1026B000260040F0100081F82600049991F82600C9
:1026C00040F0200081F826009DF81720049991F829
:1026D000260000F07F0040EAC21081F8260004992D
:1026E000088D00F4604008850699088989890844A6
:1026F00001900498008DC00430B1FFE70498008D6C
:102700006FF35F30009002E001200090FFE7019836
:10271000009990FBF1F20499888C00F0030040EAE4
:102720008200888406980079029948430399B0FB97
:10273000F1F20499888D6FF35F3200F46040104429
:1027400088850698C088029948430399B0FBF1F246
:102750000499C88D6FF35F3200F460401044C8855F
:1027600006990879CA8810440A8910444A89104495
:1027700089890844029948430399B0FBF1F204990E
:10278000088E6FF39F3200F440401044088606988C
:10279000827B0499488E00F47C4010444886069859
:1027A000028A0499888E6FF39F2200F47C401044C3
:1027B00088860698828A0499C88E6FF39F2200F457
:1027C0007C401044C8860698428A0499088F6FF3AB
:1027D0009F3200F44040104408870499202081F87B
:1027E0003A000499002081F83B00049991F82000F8
:1027F00000F0FE0081F82000049991F8200000F01C
:10280000FD0081F82000049991F8200000F0FB0001
:1028100081F82000FFE70498016888479DF81700B9
:10282000C00738B1FFE704984268012190478DF84E
:102830001F0003E001208DF81F00FFE79DF81F0037
:1028400008B080BD80B582B00090009801F060FEB5
:1028500020B1FFE701208DF8070003E000208DF88C
:102860000700FFE79DF8070002B080BD81B046F683
:10287000C040C4F2010000680090009810B1FFE76A
:1028800000BFFFE701B07047FFE7FEE780B582B009
:1028900001900198B821FEF746FD0199886902224E
:1028A00062F31F7088610199C86940F4FF70C861C4
:1028B0000199C86940F4FF30C8610199886962F3E1
:1028C0001B508861019942F6F500C0F60000C1F87E
:1028D000A800019942F6E540C0F60000C1F8AC003E
:1028E000019942F68530C0F60000C1F8B000012021
:1028F00002B080BD80B5A2B0209000208DF87F008E
:102900008DF87E00209890F82400002800F09F8029
:10291000FFE748F64440C0F6050000681E90209886
:10292000006A1D9000201C90FFE71C98209991F8E8
:102930002410884280F28A80FFE71D980068FF28F3
:1029400004D1FFE71D9804301D907BE01C98A0BBCC
:10295000FFE700208DF87F00FFE79DF87F00032848
:102960001EDCFFE71D9800689DF87F2048F23C714F
:10297000C0F60501895C884201D1FFE710E09DF8AF
:102980007F00032804D1FFE700208DF88700F4E0E2
:10299000FFE7FFE79DF87F0001308DF87F00DCE75F
:1029A0009DF87F0040008DF87F009DF878000C2195
:1029B00061F31F108DF878003BE01C9801282FD19F
:1029C000FFE700208DF87E00FFE79DF87E001928C4
:1029D0001EDCFFE71D9800689DF87E2048F24071DC
:1029E000C0F60501895C884201D1FFE710E09DF83F
:1029F0007E00192804D1FFE700208DF88700BCE095
:102A0000FFE7FFE79DF87E0001308DF87E00DCE7F0
:102A10009DF878000C2161F31F108DF8780007E015
:102A20009DF878000A2161F31F108DF87800FFE708
:102A3000FFE7FFE71D98011D1D9100681E9901F039
:102A400055FBFFE71C9801301C906EE7FFE70D2057
:102A500001900121039102F0B3F9019802F0F2F91B
:102A60000B20FEF731FF01464CF60020C3F69A30EA
:102A7000B0FBF1F01B90002002901A901990189072
:102A80001790169015901490209991F826101B9A83
:102A900011440139B1FBF2F116919DF87F100591B7
:102AA00006900790209991F82510083918BF012148
:102AB0000901089109900A900B900C900D904FF429
:102AC00080510E910F901090119014A912911390B3
:102AD00005A801F049F903999DF87F0001F024F958
:102AE00003989DF87F204FF0E04101EB4261209A6E
:102AF000D1629DF87F209DF87E108840209991F842
:102B00002530DB08584300EB426000F1E0400863E9
:102B10002098806A0490FFE70498017801200090D3
:102B200069B9FFE7049841880120009039B9FFE7AF
:102B300004984068002818BF01200090FFE7009823
:102B4000C007B0B1FFE70498408848B1FFE7049898
:102B5000406828B9FFE70498408802F0A7FD04E028
:102B600020980499FFF712FAFFE7049808300490C0
:102B7000D2E701208DF88700FFE79DF8870022B09B
:102B800080BD000010B58EB08C4686461298119814
:102B90001099CDF834E0CDF830C0ADF82E20ADF866
:102BA0002C30ADF82A10ADF828000D982A218DF8A8
:102BB00020109DF8211001F0F0018DF821109DF8F2
:102BC000211001F0EF018DF821109DF8211001F086
:102BD000DF018DF821109DF8211001F0BF018DF863
:102BE000211004210191ADF822109DF82B108DF8D1
:102BF0001C10BDF82A108DF81D10BDF82A10BDF864
:102C00002E2011440139090A8DF81E10BDF82A1032
:102C1000BDF82E20114401398DF81F1007A9099124
:102C200008A9FFF7B3F901990D982B228DF814200C
:102C30009DF8152002F0F0028DF815209DF8152062
:102C400002F0EF028DF815209DF8152002F0DF024A
:102C50008DF815209DF8152002F0BF028DF8152083
:102C6000ADF816109DF829108DF81010BDF8281039
:102C70008DF81110BDF82810BDF82C201144013931
:102C8000090A8DF81210BDF82810BDF82C20114447
:102C900001398DF8131004A9069105A9FFF776F9FB
:102CA0000D98C16A2C2008800C9803900020029097
:102CB000FFE70298BDF82E10BDF82C205143884242
:102CC0000CDAFFE70398811C039100880D99096BCA
:102CD0000880FFE7029801300290EAE701200EB079
:102CE00010BD000010B586B005908DF813109DF84A
:102CF0001300C007A8B1FFE70598006C88B1FFE793
:102D00000598016CD0F8B0C00289438A6C464FF038
:102D1000000EC4F808E0C4F804E0C4F800E0E0479E
:102D2000FFE7012006B010BD80B586B005900820F1
:102D300004901F20FEF794FF049988420DD1FFE70D
:102D40001F20FEF7C1FD059989696FF31F514FF4EC
:102D50007A72514388423DD0FFE70520FEF7B4FD6B
:102D600003900398059989696FF31F51B0FBF1F047
:102D700044F6D351C1F26201A0FB01108009029018
:102D800003980299B0FBF1F2059880696FF31F5028
:102D90004FF47A7100FB112001900198A8B1FFE770
:102DA000059880696FF31F504FF47A714843039977
:102DB000029A0132B1FBF2F1401A0199884204D221
:102DC000FFE7029801300290FFE79DF80800FFF747
:102DD0004DF9FFE704991F20FEF7FEFF012006B022
:102DE00080BD000080B582B001900198B821FEF747
:102DF0009AFA0199886920F0704088610199C86940
:102E000040F4FF70C86101998869022262F31B5087
:102E10008861019942F69560C0F60000C1F8A800EB
:102E2000019943F2B130C0F60000C1F8AC0001993D
:102E300043F23530C0F60000C1F8B00001990A6ACB
:102E4000486A20F480700A62486201990A6A486AF6
:102E500020F400700A62486201990A6A486A20F404
:102E600080600A62486201990A6A486A40F4006018
:102E70000A62486201994CF68440C4F202008865F7
:102E800001994CF60450C4F20200C1F890000120F0
:102E900002B080BD80B5B2B031903198FFF744FFE9
:102EA00017200690012101F08BFF069801F0CAFF60
:102EB000319840F2D831C2F200010860319881693E
:102EC0000020B0EB117F40F0C180FFE73198406AED
:102ED000000AC1074FF00040002918BF00202290CF
:102EE0003198406A400AC1074FF08040002918BF5E
:102EF000002023903198406A800AC1074FF00050AB
:102F0000002918BF002024903198406AC0F3C020E7
:102F1000002818BF4FF080502590319890F8240079
:102F2000002800F09280FFE748F64040C0F6050018
:102F3000006821903198006A209000201F90FFE7E0
:102F40001F98319991F8241088427DDAFFE7209884
:102F50000068FF2804D1FFE72098043020906FE03C
:102F60001F9803280DD1FFE7209800688A2808D110
:102F7000FFE79DF884000D2161F31F108DF8840098
:102F800055E01F98052805D1FFE720980068112813
:102F900044D0FFE71F98082805D1FFE72098006874
:102FA00010283BD0FFE71F980D2805D1FFE7209898
:102FB00000688B2832D0FFE71F980E2805D1FFE765
:102FC00020980068742829D0FFE71F98102805D1A1
:102FD000FFE7209800686A2820D0FFE71F98112893
:102FE00005D1FFE7209800688F2817D0FFE71F98CA
:102FF00017280AD1FFE72098006805280ED0FFE7C0
:10300000209800686C2809D0FFE71F9819280DD177
:10301000FFE720980068032808D1FFE79DF88400A7
:10302000092161F31F108DF88400FFE7FFE7FFE738
:103030002098011D20910068219901F057F8FFE7C1
:103040001F9801301F907BE7FFE70BE04FF0004037
:1030500022904FF0804023904FF0005024900020A9
:103060002590FFE731980079013826903199087949
:10307000C988084401382890289831990A89104451
:10308000898908442A902A983199498908442C90C2
:103090003198807B013827903199887B098A0844D0
:1030A0000138299029983199498A08442B902B9806
:1030B0003199898A08442D901F20FEF705FC44F6BB
:1030C000D351C1F26201A0FB011080091E901E982D
:1030D000319989696FF31F51884234D0FFE71E98F8
:1030E000319989696FF31F51401A1D902C98013056
:1030F0001C901D981C994843319989696FF31F51A1
:1031000090FBF1F01B901B98B0F1FF3F15DCFFE73F
:10311000319840894142C0EBD17040101A901A9802
:103120001B99884203DDFFE71A98059002E01B987F
:103130000590FFE705981B90FFE71C981B99084432
:1031400001382C90FFE7FF2000902E900020019086
:103150002F90309022A801F00BFB31983830199055
:103160001998406A00F00F008DF8630031990879D2
:10317000CA881044199A1288104489890844089012
:103180000898199989880844013809903199887BF1
:10319000098A08441999498808440A900A98199993
:1031A000C988084401380B901998406A09F044FF17
:1031B0000099024601980C920D910E910F9010907B
:1031C0000D9111904FF48060129005201390199882
:1031D00080681490199880889DF863104843159072
:1031E000199880889DF86310484316901998C088F4
:1031F00017904CF68440C4F20200029008A901F036
:103200005DFB02980121049101F044FB049801F058
:10321000D7FB4CF66041C4F20201372008600B98DE
:10322000013001F02DFB0499084601F087FA58207F
:103230000390032102F0BEFC039802F069FC04989D
:1032400031998969B0EB117F71D1FFE74CF650419C
:10325000C4F20201082008603198006A818B1E20A8
:1032600000EA51104CF64C41C4F20201086031985A
:10327000006A808B4009C007002857D0FFE73198CB
:10328000C069C0F34720FF2839D0FFE73198C069F3
:10329000C0F347209DF81C1001F0F00102318DF8B9
:1032A0001C109DF81C100D2262F31F118DF81C10CC
:1032B0009DF81D1001F0FC0102318DF81D109DF8E4
:1032C0001D1001F0F30108318DF81D109DF81D103F
:1032D00001F0CF0110318DF81D10079900F006FFA5
:1032E0003198C169202000EA11304CF64C41C4F2FB
:1032F00002010A68104340F010000860FFE74CF636
:103300004C41C4F20201086840F0010008603198A5
:10331000007FC00748B9FFE74CF64C41C4F20201F8
:10332000086840F040000860FFE7FFE7FFE7012082
:1033300032B080BD10B586B08C4686460A98099892
:103340000899CDF810E0CDF80CC0ADF80A20ADF822
:103350000830ADF80610ADF804000498383000903D
:103360000498007FC00740B9FFE70098036B0399FA
:103370000A9A98478DF8170015E003980099C862DB
:103380000A9820B1FFE70A980099486307E0FFE731
:103390000098C06A10B1FFE700BFF9E7FFE701201E
:1033A0008DF81700FFE79DF8170006B010BD00006C
:1033B00080B582B001908DF803109DF8030000F0F5
:1033C000010001F007F9012002B080BD80B584B092
:1033D000039002910398B821FDF7A5FF039988692E
:1033E0000122019262F31F7088610399C86940F459
:1033F000FF70C86103998869022262F31B508861DB
:10340000039943F26140C0F60000C1F8A800039997
:1034100043F60900C0F60000C1F8AC00039943F27E
:10342000F550C0F60000C1F8B00003994CF6844096
:10343000C4F20200886503994CF60450C4F20200FD
:10344000C1F89000029803990862029846F600417C
:10345000C4F20101FEF762FF019804B080BD0000D4
:1034600080B582B000900098FEF724FF20B9FFE7F6
:1034700000208DF8070016E00098FFF70BFD20B93B
:10348000FFE700208DF807000DE000980021FFF70E
:103490002DF820B9FFE700208DF8070003E0012098
:1034A0008DF80700FFE79DF8070002B080BD00001F
:1034B00080B58CB00A9009910A980121FFF716F89F
:1034C00020B9FFE74FF0FF300B9090E00A98006AB8
:1034D000089000200790069003208DF81700FFE762
:1034E0000998D0B9FFE70898D0F80CC004218DF8EE
:1034F000151000218DF816106A460321516006A9A7
:10350000116006210DF115020223E04720B1FFE70B
:10351000069800BA0B906AE05CE000208DF8140079
:1035200009980490FFE704980068FF2848D0FFE757
:103530000498006806282CD1FFE79DF81400049930
:1035400089880844052801DBFFE739E00898D0F8AE
:103550000CC00499097A8DF80E1000218DF80F1017
:103560009DF8142006A91144049A93886A46536072
:10357000116006210DF10E020223E04708B9FFE7B2
:103580001EE0049881889DF8140008448DF814000A
:1035900012E00498006828B9FFE70498808802F0D8
:1035A00085F808E00898D0F808C0049B19689A6864
:1035B0009B88E047FFE7FFE704980C300490B2E7F0
:1035C00004980068FF2804D1FFE7069800BA0B9022
:1035D0000DE0FFE79DF8170001388DF81700000691
:1035E00000287FF47DAFFFE700200B90FFE70B98EA
:1035F0000CB080BD10B592B08C46864616981598D2
:103600001499CDF840E0CDF83CC0ADF83A20ADF8C3
:103610003830ADF83610ADF83400109838300C90D2
:103620001098007FC00740B9FFE70C98036B0F9913
:10363000169A98478DF84700E1E04CF61840C4F21E
:1036400002000068C00720B1FFE701208DF84700A5
:10365000D5E0392106910520ADF81C002A228DF80D
:1036600013209DF837208DF81420BDF836208DF8F2
:103670001520BDF83620BDF83A301A44013A120A36
:103680008DF81620BDF83620BDF83A301A44013ABC
:103690008DF817200DF1130208920991ADF828005A
:1036A0002B208DF80E009DF835008DF80F00BDF829
:1036B00034008DF81000BDF83400BDF8381008440F
:1036C0000138000A8DF81100BDF83400BDF838103B
:1036D000084401388DF812000DF10E000B9010987F
:1036E000006A02900298D0F808C00699089ABDF8BE
:1036F0001C30E0470298D0F808C009990B9ABDF831
:103700002830E0474CF60C40C4F202000168090C76
:10371000ADF806100068ADF80400BDF80600BDF86D
:103720003A100144BDF80400BDF83820104440EAC6
:1037300001404CF61041C4F202010860BDF80610C9
:10374000481CBDF83A20114440EA01400C99096A2E
:103750004860BDF80410481CBDF83820114440EA08
:1037600001400C99096A88600F980C99096A88626F
:103770000C98006AC06A4FF6FF718843BDF83A1092
:1037800040EA41000C99096AC862BDF838000C99FA
:10379000096A08634CF62441C4F202010120086062
:1037A0004CF65C40C4F202000068C00748B1FFE775
:1037B0004CF65841C4F20201012008600020086064
:1037C000FFE74CF65041C4F20201086840F00800DF
:1037D00008600F980C99C862169820B1FFE71698F8
:1037E0000C99486307E0FFE70C98C06A10B1FFE747
:1037F00000BFF9E7FFE701208DF84700FFE79DF8DC
:10380000470012B010BD000010B588B006908DF8CA
:1038100017100698006A0490049842689DF81710E3
:1038200001F00101904720B9FFE700208DF81F004B
:103830002AE00498808B4009C00750B9FFE706983A
:103840009DF8171001F00101FFF7B2FD8DF81F0080
:103850001AE00698007FC00788B1FFE70698016C60
:10386000D0F8B0C00289438A6C464FF0000EC4F80D
:1038700008E0C4F804E0C4F800E0E047FFE7FFE731
:1038800001208DF81F00FFE79DF81F0008B010BD54
:1038900085B00390029101920398C06A20B1FFE7BE
:1038A00000208DF813002BE0029820B1FFE702986A
:1038B0000399C86211E003988168806A884204D144
:1038C000FFE703984069009003E003988068009048
:1038D000FFE700980399C862FFE7019820B1FFE76E
:1038E00001980399486307E0FFE70398C06A10B1A5
:1038F000FFE700BFF9E7FFE701208DF81300FFE7BE
:103900009DF8130005B0704788B0079006910592A6
:103910000798383004900020039006990291019096
:10392000FFE70198012800F39880FFE7049943F628
:103930009100C0F6000008630498406A38B9FFE7B8
:1039400007988069C0F3075004994862FFE704981C
:10395000406A00F00F008DF8030007990889498A32
:1039600048439DF80310484303900398033020F028
:103970000300039003980599884209D8FFE7079848
:103980000089049988800798408A0499C88025E0B6
:103990000198012801DBFFE75FE00798008904999F
:1039A00088800598079909899DF803205143B0FB49
:1039B000F1F00499C8800798408A0499CA88801A4F
:1039C00000EBD0704008488004998888C988484333
:1039D0009DF8031048430390FFE7FFE7029804991E
:1039E000886202980499886003980499C8600399D2
:1039F0000598401A0590039820F0030102980844A6
:103A0000029004998888C98848439DF80310484368
:103A100003900398033020F0030003900398059966
:103A2000884207D8FFE702980499486103980499EF
:103A3000886100E011E003990598401A0590039809
:103A400020F0030102980844029004983830049052
:103A5000FFE701980130019063E7012008B070474B
:103A600080B584B00290019102980199FEF746FA60
:103A700030B1FFE740F22810C2F2000003901AE0D4
:103A800002980199FEF7AEFC30B1FFE740F29820B2
:103A9000C2F2000003900EE002980199FEF756FB77
:103AA00030B1FFE740F2E010C2F20000039002E004
:103AB00000200390FFE7039804B080BD10B588B0E4
:103AC0008C4686460B980A99CDF818E08DF817C0F9
:103AD0008DF816208DF815308DF814108DF8130020
:103AE0000698C069C0F34700FF2804D1FFE7002013
:103AF0008DF81F009FE00698C069C0F347009DF84D
:103B00000C1001F0F00101318DF80C109DF80C1033
:103B100001F00F018DF80C109DF80D1001F0FC0163
:103B20008DF80D109DF80D1001F0F30104318DF8A2
:103B30000D109DF80D1001F0CF0110318DF80D1012
:103B4000039900F0D3FA9DF81700C007002852D05F
:103B5000FFE70698C269C2F343000121009101FA10
:103B600000F09DF816309943090188401821C4F2ED
:103B70000201019141EA421143F61842C4F20202E5
:103B80000292114008609DF8150001F08FFD009829
:103B90000199029A069BDB69C3F3430C00FA0CF00F
:103BA0009DF816C00CF0010C4FEA0C1C00FA0CF04A
:103BB00041EA4311114008609DF8140001F076FDC0
:103BC000DDF800C00199029A0698C369C3F3430067
:103BD0000CFA00F09DF816E02CEA0E0C4FEA0C1CD3
:103BE00000FA0CF041EA4311114008609DF81300FF
:103BF00001F05CFD1BE00698C269C2F3430101209D
:103C000088409DF8161001F0010109018840182133
:103C1000C4F2020141EA421143F61842C4F2020220
:103C2000114008609DF8140001F040FDFFE70120FD
:103C30008DF81F00FFE79DF81F0008B010BD0000C1
:103C400088B0079007983830069007988069C0F3CD
:103C5000075003282BD1FFE70698806805900020C5
:103C60000490FFE704980699C98888421EDAFFE7A6
:103C700000200390FFE7039806998988884210DAAC
:103C8000FFE70599FF208870059900204870059985
:103C90000870059803300590FFE703980130039002
:103CA000E9E7FFE7049801300490DBE731E006988C
:103CB0008068029000200190FFE701980699C9886A
:103CC000884225DAFFE700200090FFE70098069978
:103CD0008988884217DAFFE7029908886FF3DF20A6
:103CE00008800299088840F4FC60088002990888DE
:103CF00020F01F000880029802300290FFE7009831
:103D000001300090E2E7FFE7019801300190D4E72D
:103D1000FFE708B07047000080B540F29430C2F26F
:103D2000000001F0A7FD80BD82B0019000910098D5
:103D300050B1FFE7019A4FF0204151F8220040F0C6
:103D4000010041F822000CE0019A4FF0204151F8A7
:103D500022004FF6FE73C0F20F03184041F8220014
:103D6000FFE702B07047000080B585B004900020E6
:103D7000039002900190049800684FF0204151F8A0
:103D80002000039003988022CFF6F7721040039032
:103D9000049A00925068D2F808E0D2F80CC0136977
:103DA00040EA0E0040EA0C00184353691843936937
:103DB0001843D3691843136A1843536A1843936A24
:103DC0001843D36A1843126B0243039810430390BD
:103DD0000398049A126841F8220004988068082821
:103DE0000BD1FFE7049802684FF0204151F8220000
:103DF00040F0400041F82200FFE7049800680421E9
:103E0000CAF2000151F820000290029800F04040F0
:103E100002900498426B1068D2F804E0D2F808C00F
:103E2000D36840EA0E1040EA0C2040EA03401369D0
:103E300040EA0350536940EA0360926902430298E2
:103E4000104302900298049A126841F822000498E4
:103E5000C06AB0F5804F28D1FFE70498006840F2AF
:103E60000411CAF2000151F82000019001980022CB
:103E7000CCF6F072104001900498826B1068D2F872
:103E800004E0D2F808C0D36840EA0E1040EA0C20E3
:103E900040EA03409269024301981043019001985F
:103EA000049A126841F822000AE00498026840F27D
:103EB0000411CAF200016FF0704041F82200FFE7E0
:103EC00005B080BD82B08DF80700022000909DF8FB
:103ED0000700192803DBFFE70420009014E09DF899
:103EE0000700112803DBFFE7032000900BE09DF89B
:103EF0000700092803DBFFE70220009002E0012011
:103F00000090FFE7FFE7FFE7009802B0704700006E
:103F100080B582B001900091019840F29441FDF784
:103F200002FA019944F25120C0F60000086001999C
:103F300041F2BD40C0F600004860019941F2715065
:103F4000C0F6000088600098019981F88E040099FD
:103F500048F6CC10C0F6050050F831000199C1F8C0
:103F60009004012002B080BD85B004900391002030
:103F70000290019000900290FFE702980F2854D819
:103F8000FFE7029901208840019003980068019999
:103F90000840009000980199884241D1FFE70498B9
:103FA000006802994A0003219140884303994968B7
:103FB000914008430499086003984068012805D09F
:103FC000FFE70398406802281AD1FFE70498806849
:103FD00002994A00032191408843039989689140DE
:103FE00008430499886004984068029A012191402E
:103FF0008843039989899140084304994860FFE701
:104000000498C068029A91B24B00032199408843FA
:10401000039909695200914008430499C860FFE779
:10402000FFE7029801300290A7E705B07047000053
:1040300082B00190ADF8021000208DF801000198C7
:104040000069BDF80210084204D0FFE701208DF896
:10405000010003E000208DF80100FFE79DF801005A
:1040600002B0704781B0009000994FF6FF70086071
:10407000009900204860009988600099C860009904
:10408000086101B07047000082B000900098007B8A
:10409000FF2804D1FFE701208DF807001FE043F659
:1040A0001440C4F2010000680099097B01F00F017F
:1040B000C840C00778B1FFE70098007B00F00F010F
:1040C000012000FA01F143F61442C4F2010211602A
:1040D0008DF8070003E000208DF80700FFE79DF84A
:1040E000070002B070470000FFE7FEE780B586B02A
:1040F000059104900498800140F2FF31884300212B
:10410000C4F2020108440390049800F00F0040003C
:104110008DF80B0004980009012100F051FE9DF874
:104120000B10032088400190039800680199884390
:10413000009000989DF8141001F003019DF80B20E9
:1041400091400843039908609DF8140000F00300B3
:10415000022807D0FFE79DF8140000F003000128B3
:104160003CD1FFE70398806801998843009000984C
:104170009DF81510C1F381019DF80B209140084373
:1041800003998860039840689DF80B104A08012144
:1041900091408843009000989DF8141001F00F02A0
:1041A0000021032AC8BF01219DF80B20520891402D
:1041B0000843039948600398D0F8F00001998843B8
:1041C000009000989DF81510C1F301119DF80B2087
:1041D000914008430399C1F8F000FFE70398C068D5
:1041E00001998843009000989DF8151001F0030193
:1041F0009DF80B20914008430399C8609DF80B007F
:1042000040008DF80B009DF80B0000F01F010F20FF
:104210008840019003989DF80B10C1F3421100EB08
:104220008100006A01998843009000989DF814105D
:1042300009099DF80B2002F01F03994008430399D8
:10424000C2F3421201EB8201086206B080BD000099
:1042500080B584B003908DF80B109DF80B00C0075B
:1042600008B3FFE7039890F88E04012100F0A8FD41
:10427000039890F88E0400F0E5FD0399002081F882
:104280008C04039981F88D04039840F2D831C2F26E
:10429000080108605A200190032101F06DFC01988B
:1042A00001F020FC09E040F2D831C2F20801002000
:1042B00008605A2001F0FCFBFFE7012004B080BD3C
:1042C00080B584B003900398C06B0290039800F00F
:1042D000F9FB0399888BC0F34100097E40EA012075
:1042E0000299C1F8A4000398808B00F001004000FF
:1042F00001300299C1F8940003980069C008019048
:1043000002980199039B9A8ADB8A00F0C3F803980C
:10431000407E40EA00400299C1F89C000399488B16
:104320000969C90848434DF68361C4F21B31A0FBFB
:104330000110800CADF80200BDF802000299C1F82E
:104340008800BDF802000299C1F88000BDF80200A3
:104350000299C1F88C000398818BC1F38310C1F3DB
:10436000802140EA012002990861039890F820001A
:1043700000F01F00029948610398808BC0F3401041
:10438000029948630398808B4009C00718B3FFE780
:104390000398808BC0F3C1000299C8600398C08B5A
:1043A00002994866039A92F82010C1F34110B2F8BE
:1043B000212002F07F0340EA0320C2F3C31240EA47
:1043C000024001F0800140EA41400299886602996A
:1043D0000420C86253E00399888C00F0030091F830
:1043E000262040EA0220898BC1F3C02140EA014027
:1043F000029988630398808C80080299C8630398A7
:10440000008D6FF35F30029908640398408D6FF35D
:104410005F30029948640398808D6FF35F30029992
:1044200088640398C08D6FF35F300299C864039865
:10443000008E6FF39F30029908650398408E6FF3EA
:104440009F20029948650398808E6FF39F20029900
:1044500088650398C08E6FF39F200299C865039802
:10446000008F6FF39F3002990866039890F83A1016
:1044700090F83B0040EA014002998861FFE7029909
:104480000020C1F8C4000299C1F8C800012004B09E
:1044900080BD000086B005900491ADF80E20ADF807
:1044A0000C300498BDF80E10B0FBF1F08DF80B0045
:1044B0000498BDF80C10B0FBF1F08DF80A009DF8DF
:1044C0000B00022804DBFFE79DF80B00019002E0DF
:1044D00002200190FFE701988DF80B009DF80A007B
:1044E000022804DBFFE79DF80A00009002E00220AA
:1044F0000090FFE700988DF80A009DF80B009DF8EA
:104500000A1040EA01200599886006B07047000053
:1045100080B586B005900598694678224A601423D4
:104520000B60012203921146FFF7C8FA0398059A1F
:10453000916944F6206363F313019161059A0F2199
:104540001171059AD180059B4FF4F0721A81059A7A
:104550005181059A04219173059A1182059A40F2BE
:1045600056315182059A0C219182059A48F25C716C
:10457000C0F605015162059A9169032363F31B514B
:1045800091610599096A0491049A49F2E031C0F2F7
:1045900004011161049A918B41F0020121F00401A0
:1045A0009183049A918B21F4707101F5A07191832C
:1045B000049A918B21F02001918306B080BD000008
:1045C00081B0009000984CF63C41C4F202010860B2
:1045D00001B0704781B00090009848B1FFE74CF6F9
:1045E0001841C4F20201086840F00100086008E0C8
:1045F0004CF61841C4F20201086820F0010008607E
:10460000FFE701B07047000082B0019000200090E9
:104610004CF63840C4F2020000680199084203D009
:10462000FFE70120009002E000200090FFE70098E3
:1046300002B0704780B582B00220FFF7E5FF20B1DD
:10464000FFE70220FFF7BCFFFFE70120FFF7DCFFD9
:1046500008B9FFE76FE00120FFF7B2FF40F2D83062
:10466000C2F20000006808B9FFE764E040F2D83009
:10467000C2F200000068D0F8B40050B1FFE740F289
:10468000D830C2F200000068D0F8B4200021904772
:10469000FFE740F2D830C2F20000006838300190E5
:1046A0000198C06A28B3FFE740F2D830C2F2000098
:1046B0000068007FC007E0B9FFE70198016AC06A9F
:1046C00088624CF62441C4F202010220086001997C
:1046D000C86A886201990020C8620198406B38B1AD
:1046E000FFE70198416B8847019900204863FFE785
:1046F000FFE74CF65440C4F20200006890B1FFE7B7
:104700004CF65C40C4F202000068C00748B1FFE705
:104710004CF65841C4F202010120086000200860F4
:10472000FFE7FFE70820FFF76FFF20B1FFE7082052
:10473000FFF746FFFFE702B080BD000082B00190A6
:104740000091009848B1FFE7019A4CF63441C4F259
:10475000020108681043086008E0019A4CF63441F1
:10476000C4F20201086890430860FFE702B0704796
:1047700087B006900020059004900390029001906D
:1047800000904CF60841C4F2020108684FF600029E
:10479000CFF20002104008600698006900040590FE
:1047A0000598069B5B6903430868184308604CF64C
:1047B0000C41C4F202010868104008600698806944
:1047C000000404900498069BDB69034308681843BF
:1047D00008604CF61041C4F20201086810400860FD
:1047E0000698006A000403900398069B5B6A0343E3
:1047F0000868184308604CF61441C4F202010868C6
:10480000104008600698806A000402900298069A98
:10481000D26A02430868104308604CF61841C4F29B
:104820000201086848F68F02C0F6FE721040086068
:10483000069A1068D2F804C09368D26840EA0C0067
:10484000184302430868104308600698406B000252
:1048500001900698006B000400904CF62C41C4F2C5
:104860000201086800F07F4008600098019A104338
:10487000069A926B024308681043086007B07047BD
:1048800081B0009000984CF64041C4F202010860EB
:1048900001B0704782B001900091009830B1FFE7FD
:1048A0000199086840F00100086005E00199086876
:1048B00020F001000860FFE702B0704788B0079061
:1048C00006910020059004900390029001900090C2
:1048D0000699496809040591079A516801F47041E5
:1048E000516006990968059A1143079A5160069923
:1048F000C96809040491079A916801F470419160B4
:1049000006998968049A1143079A9160079A116978
:1049100021F00701116106990969079A1161069949
:10492000C969090203910699096A09040291069965
:10493000496A0906019107998A6988610699896916
:10494000039A1143029A1143019A1143079A916104
:10495000079A516921F0FF01516106994969079A47
:104960005161079AD16940F207739943D161069A60
:10497000916AD26A1143079AD16107998A6A88625B
:104980000698006B079988620698806B0004009077
:104990000799C86A00F0E020C8620698406B009949
:1049A00008430799C8620799086B40F2FF72904369
:1049B00008630698C06B0799086308B07047000049
:1049C00081B0009000984CF62441C4F202010860C6
:1049D00001B0704780B58AB000F0BCFB0FF04EF814
:1049E00040F2E431C2F2080100200390087040F266
:1049F000E400C2F20000006840F2E801C2F20001E7
:104A00000968FFF72DF80146039809910890059071
:104A10000490099870B9FFE74FF4A070ADF81A0040
:104A2000F020ADF8180040F2E400C2F20000006887
:104A3000059024E009980089ADF81E000998408A85
:104A4000ADF81C0009983830089008988088ADF8B7
:104A50001A000898C088ADF818000898806805907A
:104A60000998007FC00718B1FFE70020029003E01B
:104A7000089840690290FFE702980490FFE72DF044
:104A800015FE0998BDF81A10BDF81820059BDDF831
:104A900010C0EE46CEF800C042F066FB3BF064FA70
:104AA0000020032120F064F8099848B1FFE7099835
:104AB000FFF7C6F80998D0F8AC2001219047FFE72E
:104AC0000AB080BD80B58AB009900998C06B089083
:104AD0000998006941F25971CDF2B711A0FB01109C
:104AE000400BADF81E0000208DF81D00BDF81E0023
:104AF0000A2809DCFFE7BDF81E106FF07F0000EB0D
:104B000001108DF81D00ABE0BDF81E000F2817DC6A
:104B1000FFE7BDF81E0009388DF81D009DF81D0047
:104B20004AF6AB21CAF6AA21A0FB01214A0802EBF2
:104B30004202801A000140EA51008DF81D008EE00B
:104B4000BDF81E0018281CDCFFE7BDF81E106FF032
:104B5000060000EB51008DF81D009DF81D004AF67F
:104B6000AB21CAF6AA21A0FB0112510801EB4101B9
:104B7000411A022000EB520040EA01108DF81D009E
:104B80006CE0BDF81E0023281ADCFFE7BDF81E000C
:104B90004AF6AB21CAF6AA21A0FB01016FF007007B
:104BA00000EB51008DF81D009DF81D2002F0010161
:104BB000042000EB520040EA01108DF81D004CE08B
:104BC000BDF81E00272804DCFFE725208DF81D0016
:104BD00042E0BDF81E0046281ADCFFE7BDF81E00C3
:104BE0004CF6CD41CCF6CC41A0FB01016FF00700A3
:104BF00000EB91008DF81D009DF81D2002F00101D1
:104C0000062000EB520040EA01108DF81D0022E062
:104C1000BDF81E00962804DBFFE79520ADF81E00C6
:104C2000FFE7BDF81E004CF6CD41CCF6CC41A0FB11
:104C300001016FF00D0000EB91008DF81D009DF853
:104C40001D2002F00301092000EB920040EA011050
:104C50008DF81D00FFE7FFE7FFE7FFE7FFE7FFE74E
:104C60009DF81D0040008DF81D0008989DF81D203E
:104C7000442100F081F80020ADF81A00ADF81800CA
:104C800045F6C05005900120ADF81200FFE7BDF8D1
:104C9000120040283DDCFFE7BDF8121045F6C05079
:104CA000B0FBF1F00390099801694808039AB0FB42
:104CB000F2F05043C0EB51004000029009980069A7
:104CC00040080399B0FBF1F04000ADF80600BDF8D4
:104CD0000600B0F5967F01DDFFE714E00298059924
:104CE00088420FD2FFE702980590BDF81200ADF898
:104CF0001A00BDF80600ADF81800059808B9FFE7DE
:104D000007E0FFE7FFE7BDF812000130ADF8120041
:104D1000BDE7BDF81A0060B3FFE7BDF8180040B367
:104D2000FFE7BDF81A000138ADF81A00BDF8180009
:104D30000138ADF8180008981921302200F01CF84D
:104D40000898BDF81A20172100F016F80898BDF849
:104D5000181001F01F021821009100F00DF80099C1
:104D60000898BDF81830802242EA531200F004F887
:104D7000FFE70AB080BD000083B00290019100926D
:104D8000019840F480300299C1F8B80002980221DD
:104D9000C0F8B410029A0020C2F8B400009A029B36
:104DA000C3F8B820029AC2F8B4100299C1F8B4004E
:104DB0000298D0F8B80080B2000A03B07047000033
:104DC00084B003908DF80B10039948F6CC10C0F610
:104DD000050000EBC10001900020009001980079CF
:104DE0000E280ADCFFE70198017943F60400C4F2BB
:104DF000020000EB8100009009E00198017943F680
:104E00000400C4F2020000EB81000090FFE79DF86F
:104E10000B00C00750B1FFE701984179012000FA6B
:104E200001F2009908681043086009E0019841798F
:104E3000012000FA01F20099086890430860FFE73A
:104E400004B0704780B582B001900198012100F054
:104E500007F80198002100F003F802B080BD0000BF
:104E600084B003908DF80B10039948F6CC10C0F66F
:104E7000050000EBC100019000200090019800792E
:104E80000E280ADCFFE70198017943F2E470C4F2CE
:104E9000020000EB8100009009E00198017943F2E3
:104EA000E470C4F2020000EB81000090FFE79DF87F
:104EB0000B00C00750B1FFE701984179012000FACB
:104EC00001F2009908681043086009E001984179EF
:104ED000012000FA01F20099086890430860FFE79A
:104EE00004B0704781B00090009943F61440C4F2BA
:104EF0000200016002688A42FCD101B070470000E4
:104F000080B590B084461398DDF848E0CDF838C0FD
:104F10000D910C92ADF82E30ADF82C000E98C06BB0
:104F20000A90FFE70A98D0F8BC100120049041B91C
:104F3000FFE70A98D0F8C000002818BF01200490AD
:104F4000FFE70498C00710B1FFE700BFEAE7BDF82C
:104F50002C0010300E99CA8A50434001898A90FB78
:104F6000F1F00A9988670E98BDF82C108DF826107C
:104F70009DF82D108DF8271037210DF12602022300
:104F800000F00AFD20B9FFE700208DF83F00AFE0F8
:104F90000E980D990C9ABDF82E3000F0FDFC20B94A
:104FA000FFE700208DF83F00A2E0FFE7012000F0BE
:104FB0008DFB0A98D0F8C0000790FFE70A98D0F858
:104FC000B010002089070029039014D4FFE70A9845
:104FD000406F4006002808D4FFE70A98416F002080
:104FE00011F0011F039006D1FFE70798B0FA80F097
:104FF00040090390FFE70398C0070028D6D1FFE7D8
:10500000FFE70A98D0F8B0008007002808D4FFE72F
:105010000A98416F002049060029029006D5FFE753
:105020000798B0FA80F040090290FFE70298C007A5
:1050300028B1FFE70A98D0F8C0000790E1E70A9886
:10504000D0F8BC000890079828B9FFE70A98D0F874
:10505000C0000790FFE7089848B9FFE7079830B904
:10506000FFE70A98406FC00600280DD5FFE70E98AD
:105070000021019100F09CF90E98012100F098F9AF
:1050800001988DF83F0033E0FFE7BDF82C0058B3DE
:10509000FFE70A98006F0690BDF82C0004280CDB8F
:1050A000FFE7069812990860129804301290BDF834
:1050B0002C000438ADF82C0015E000200590FFE727
:1050C0000598BDF82C1088420CDAFFE7059906A870
:1050D000405C12994A1C12920870FFE70598013053
:1050E0000590EDE700E0D0E701208DF83F00FFE7F5
:1050F0009DF83F0010B080BD82B040F20000C2F2C7
:1051000014000190019880F3088800F0F3FAFCF78E
:1051100077F8000080B584B00390029148F63C40D7
:10512000C0F605000068019000200090FFE700989D
:10513000029988420CDAFFE70398009950F82100A1
:105140000199FEF7D3FFFFE7009801300090EEE7EA
:1051500004B080BD10B5B8B040F20001C2F2000149
:1051600012A801909822FCF7B7F801982621FFF7C2
:10517000D1FF48F62C43C0F60503186859689A68B1
:10518000DB68119310920F910E909DF83810232038
:10519000FCF712FA9DF8390000F0C0F813200290D5
:1051A00001210491FFF70CFE0298FFF74BFE48F235
:1051B000C822C0F605020392106851689368D2F8BD
:1051C0000CC0D2F810E054690A94CDF824E0CDF870
:1051D00020C00793069105909069D169126A0D92DB
:1051E0000C910B9005A800F033F804980F9942F247
:1051F0000402CAF200021160109942F20802CAF2D7
:1052000000021160119942F21002CAF2000211600C
:1052100000F0AEF8FFE7012000F006F8012801D108
:10522000FFE7F8E738B010BD82B0009042F20C0002
:10523000CAF2000000680099084203D0FFE701208D
:10524000019002E000200190FFE7019802B0704752
:1052500083B0029042F20002CAF20002106801908C
:1052600042F20C01CAF2000108680090019820F493
:10527000C040029B1B6818430190019820F0180061
:10528000029B5B6818430190019820F4F050029B48
:105290009B6818430190019820F4F070029BDB6832
:1052A00018430190009820F00800029B5B691843A6
:1052B0000090009820F01000029B9B69184300901A
:1052C000009820F02000029BDB69184300900098B2
:1052D00020F4E070029B1B6A40EA83100090019862
:1052E00010600098086043F63001C4F201010868BC
:1052F00020F00100029A12691043086042F2140182
:10530000CAF200014FF0C040086042F21801CAF230
:1053100000014FF0C840086003B0704780B582B00C
:10532000019040200121FFF74BFD019868B9FFE78C
:1053300043F63001C4F20101086820F04000086023
:10534000086820F03E0008600FE043F63001C4F228
:105350000101086820F03E00019A40EA420008601E
:10536000086840F040000860FFE702B080BD000020
:1053700081B000909DF80300000600280DD5FFE7DE
:1053800000994FF0004060EA010242F20C01CAF2BB
:10539000000108681040086008E0009A42F20C0121
:1053A000CAF20001086810430860FFE701B07047C7
:1053B00080B586B004908DF80F100498C06B0290F1
:1053C0009DF80F00C00720B3FFE702990120486055
:1053D00002990720C1F8A00000200190FFE7019882
:1053E000C72812DCFFE70A2000F070F90298D0F815
:1053F000B000C00720B1FFE701208DF8170013E0CF
:10540000FFE7019801300190E9E700208DF81700CF
:105410000AE00299002048600299C1F8A000FFE765
:1054200001208DF81700FFE79DF8170006B080BD3A
:1054300080B582B0009000980138B0F1807F03D32E
:10544000FFE70120019019E0009801384EF21401A5
:10545000CEF2000108604FF0FF300F2100F06EFB2C
:105460004EF21801CEF20001002008604EF2100248
:10547000CEF20002072111600190FFE7019802B00F
:1054800080BD000080B5012040F03CFB41F284214A
:10549000C2F20D0108680130086006F08DF980BD88
:1054A00070B58AB09C4696460C46054611981099F0
:1054B0000F9A0E9B8DF827508DF82640ADF824E00A
:1054C0008DF823C08DF822308DF821208DF8201022
:1054D0008DF81F0000F0B2F89DF827100020C907D2
:1054E000039031B1FFE701210846FCF74BF9039027
:1054F000FFE7039800F00100069000208DF81700E8
:1055000043F61440C4F20200006843F6F07108400C
:105510000490FFE79DF81700C00740B1FFE7069928
:105520000920FCF759FC0498FFF7DCFCFFE79DF825
:105530001700C007002843D0FFE700F07FF80320E2
:1055400001900021FCF71EF906990220FCF744FCAB
:105550009DF826100420FCF72FF8BDF82410052034
:10556000FCF7B8FB062006909DF82310FCF724F802
:105570009DF822100720FCF71FF89DF82110082045
:10558000FCF71AF8019801210291FCF7FBF8029947
:105590000A20FCF711F89DF820100B20FCF70CF8FE
:1055A0009DF81F100F20FCF707F89DF81F10102022
:1055B000FCF702F8049844F2040108430490FFE762
:1055C0009DF81700C00740B1FFE706990920FCF7D6
:1055D00003FC0498FFF786FCFFE79DF81700C0075F
:1055E00098B9FFE709200090FCF73AFB01460098C4
:1055F000FCF7F2FB43F61440C4F202000068FFF728
:1056000071FC01208DF8170084E700F017F804986A
:1056100040F29801C2F2000109684DF68362C4F2BB
:105620001B32A1FB02120021C3F6FF7101EA9201B5
:105630000843FFF757FC0AB070BD000080B582B088
:105640000A20FCF741F940F29801C2F2000108601B
:1056500045F2CD60C0F60000B0F1005F03D3FFE774
:10566000062001900AE045F2CD61C0F60001042059
:10567000B1F1011F38BF0C200190FFE7019840F203
:10568000B801C2F20001086040F29800C2F20000C6
:1056900000684DF68362C4F21B32A0FB0220800B2F
:1056A0000A68B0FBF2F0086002B080BD80B582B03D
:1056B0000190FFE70198411E019128B1FFE74FF4E7
:1056C0007A7000F003F8F5E702B080BD81B0009079
:1056D000009840F2B801C2F20001096800FB01F035
:1056E0004FEA10100A3838BF0020013800BFFCD242
:1056F00001B0704780B584B041F20000C0F60000F0
:105700004EF60851CEF2000108604EF68851CEF2F6
:105710000001086840F47000086069460220C86013
:1057200088600620486008600C214FF496720123BF
:105730001846FFF7B5FE04B080BD000082B00190AE
:105740000091009830B1FFE70199088840F001000E
:10575000088005E00199088820F001000880FFE733
:1057600002B0704783B0029001910020ADF80200B2
:1057700002980088ADF8020002980021C4F20101ED
:10578000884225D0FFE7029840F20041C4F20101AF
:1057900088421DD0FFE70298B0F1804F18D0FFE794
:1057A000029840F20041C4F20001884210D0FFE7A5
:1057B000029840F60001C4F20001884208D0FFE7D9
:1057C000029840F60041C4F2000188420ED1FFE782
:1057D000BDF8020020F07000ADF802000198418889
:1057E000BDF802000843ADF80200FFE7029841F25D
:1057F0000001C4F20001884216D0FFE7029841F28E
:105800000041C4F2000188420ED0FFE7BDF802005B
:1058100020F44070ADF8020001980189BDF8020043
:105820000843ADF80200FFE7BDF8020002990880C6
:10583000019840680299C862019800880299088519
:1058400002980021C4F20101884208D0FFE70298C3
:1058500040F20041C4F20101884205D1FFE70198FE
:10586000807A02990886FFE702990120888203B0B6
:105870007047000080B582B001900198FEF704FCEB
:1058800020B1FFE70198016A8847FFE702B080BDB9
:1058900080B544F60000C4F2000040F2255100F04B
:1058A0000DF850B1FFE744F60000C4F2000000F02C
:1058B0006BF8C0B242F0DEFCFFE780BD86B0059019
:1058C000ADF8121000200390029001900090BDF8F6
:1058D000120040F66A11884201D1FFE7FFE79DF808
:1058E000120040090190BDF8120000F01F00029064
:1058F00002990120884002900198012806D1FFE713
:10590000059881890298084002901BE001980228BE
:1059100006D1FFE70598018A02980840029010E03E
:105920000198032806D1FFE70598818A029808406C
:10593000029005E00598818B029808400290FFE7ED
:10594000FFE7FFE79DF813000390039901208840CB
:1059500003900598808B00F020010598008840EAAC
:105960004111039808400390029830B1FFE7039873
:1059700018B1FFE70120009002E000200090FFE74F
:10598000009806B07047000081B0009000988088B1
:105990006FF35F2001B070478AB0089007910692BC
:1059A000ADF816300898C06B0490FFE70498406F7C
:1059B000C00710B9FFE700BFF8E79DF81C0000071B
:1059C000002839D4FFE7BDF81600032804DBFFE701
:1059D00000208DF8270058E0BDF8160020B1FFE741
:1059E00006980078029002E000200290FFE70298FB
:1059F0000190BDF81600022805D1FFE7069840780F
:105A00000002009002E000200090FFE7019800995A
:105A10000843ADF80E0007980899898B01F018012A
:105A200040EAC100BDF80E1040EA01200499C866A2
:105A300001208DF8270028E00020ADF80C00FFE7DA
:105A4000BDF80C00BDF8161088420DDAFFE7069885
:105A5000BDF80C10405804990867FFE7BDF80C002A
:105A60000430ADF80C00EBE707980899898B01F03A
:105A7000180140EAC100BDF8161040EA012004995F
:105A8000C86601208DF82700FFE79DF827000AB0BF
:105A90007047000081B00090009943F61440C4F2B2
:105AA0000200016002688A42FCD101B07047000028
:105AB00081B000900098002811D4FFE7009901F010
:105AC0001F02012090404A094EF28011CEF20001DF
:105AD00041F82200BFF34F8FBFF36F8FFFE701B094
:105AE0007047000081B00090009800280DD4FFE7B7
:105AF000009901F01F02012090404A094EF2001166
:105B0000CEF2000141F82200FFE701B0704700002B
:105B100081B00090009800280DD4FFE7009901F0B3
:105B20001F02012090404A094EF20011CEF20001FE
:105B300041F82200FFE701B07047000082B00190F9
:105B400000910198002809D4FFE70098000101990D
:105B50004EF20042CEF2000288540AE000980001A2
:105B6000019901F00F014EF61452CEF20002885452
:105B7000FFE702B07047000082B0019000910198E9
:105B8000002809D4FFE70098000101994EF2004275
:105B9000CEF2000288540AE000980001019901F059
:105BA0000F014EF61452CEF200028854FFE702B005
:105BB0007047000082B0019000910198002809D43C
:105BC000FFE70098000101994EF20042CEF2000278
:105BD00088540AE000980001019901F00F014EF687
:105BE0001452CEF200028854FFE702B07047000062
:105BF00080B582B0019000200090FFE70198006816
:105C0000007800F067F868B1FFE7009800EB8001CA
:105C1000019B1868421C1A60007800EB4100303884
:105C20000090EBE7009802B080BD000080B588B01E
:105C30000790069105920493049830B9FFE70798FE
:105C4000059920F09FF90490FFE7049806994843CE
:105C500003900598142808D1FFE704984008069996
:105C6000039A00FB0120039031E0059807282DD30B
:105C7000FFE705980A2829D8FFE70598072803D1E8
:105C8000FFE7022002901BE00598082803D1FFE7F8
:105C90000420019011E00598092803D1FFE71020A6
:105CA000009007E005980A38B0FA80F04009000239
:105CB0000090FFE700980190FFE701980290FFE74E
:105CC0000299039800EB81000390FFE7FFE7039838
:105CD00008B080BD82B08DF807009DF80710002045
:105CE0003029009008DBFFE79DF8071000203A29D3
:105CF000B8BF01200090FFE7009800F0010002B05B
:105D00007047000070B58CB08446169815981498AA
:105D100013981298DDF844E0DDF840E0CDF82CC08F
:105D20000A91099208938DF81F009DF8580080078A
:105D3000002853D4FFE71598A0B1FFE79DF858005D
:105D4000C00778B1FFE79DF81F00C00730B9FFE733
:105D50009DF8580010F00C0F04D0FFE7159801389B
:105D60001590FFE7FFE71199149A002091420690E1
:105D700007D2FFE711990020202938BF01200690A3
:105D8000FFE70698C00738B1FFE71099119A501C39
:105D9000119030208854E6E7FFE700209DF8581066
:105DA000C907059071B1FFE71199159A002091423A
:105DB000059007D2FFE711990020202938BF012064
:105DC0000590FFE70598C00738B1FFE71099119AD1
:105DD000501C119030208854DFE7FFE79DF85800F1
:105DE000C006002869D5FFE79DF859004007002844
:105DF0001CD4FFE71198C8B1FFE7119814998842A5
:105E000005D0FFE71198159988420FD1FFE7119847
:105E100001381190119840B1FFE71398102804D170
:105E2000FFE7119801381190FFE7FFE7139810285A
:105E300011D1FFE79DF85800800600280BD4FFE73A
:105E400011981F2807D8FFE71099119A501C11903C
:105E50007820885425E01398102811D1FFE79DF889
:105E60005800800600280BD5FFE711981F2807D897
:105E7000FFE71099119A501C1190582088540FE098
:105E8000139802280BD1FFE711981F2807D8FFE7C6
:105E90001099119A501C119062208854FFE7FFE777
:105EA000FFE711981F2807D8FFE71099119A501C97
:105EB000119030208854FFE7FFE711981F2829D858
:105EC000FFE79DF81F00C00738B1FFE71099119A4E
:105ED000501C11902D2088541BE09DF8580040075D
:105EE000002807D5FFE71099119A501C11902B201C
:105EF00088540DE09DF858000007002807D5FFE7FB
:105F00001099119A501C119020208854FFE7FFE748
:105F1000FFE7FFE70B980A99099A089BDDF840C054
:105F2000119C159D169EEE46CEF80C60CEF80850DA
:105F3000CEF80440CEF800C000F044F90CB070BDBB
:105F40002DE9F04198B08446239822982198209812
:105F50001F98DDF878E0CDF85CC016911592149387
:105F60008DF84F0000200A901E9828B9FFE723986B
:105F700020F010002390FFE79DF88D0040070028D7
:105F800004D5FFE71E9800283FD0FFE7FFE71E9AE1
:105F90002099B2FBF1F000FB11208DF827009DF84D
:105FA0002700092805DCFFE79DF82700303008901E
:105FB0000CE09DF88C0081066120002948BF41203B
:105FC0009DF8271008440A380890FFE708980A9AB5
:105FD000511C0A910DF12F01885420991E98B0FB95
:105FE000F1F01E90FFE71E990020079039B1FFE7FE
:105FF0000A990020202938BF01200790FFE7079861
:10600000C0070028C3D1FFE7FFE717981699159A34
:10601000149BDDF828C0209D219E229FDDF88C80F6
:106020009DF84F40EE46CEF81880CEF81470CEF8AA
:106030001060CEF80C5004F00104CEF80840CEF801
:1060400004C00DF12F0CCEF800C0FFF75BFE18B0B6
:10605000BDE8F0812DE9F0419EB09E4614460D4604
:10606000064629992898DDF894C0249B2C9A2B9AEF
:106070002A9A269A1D961C951B94CDF868E0CDF8B7
:1060800064C018938DF85F201591149000200B9038
:1060900018981999084328B9FFE72C9820F01000A8
:1060A0002C90FFE79DF8B1004007002806D5FFE7D8
:1060B000189819990843002843D0FFE7FFE718987C
:1060C0001999149A159BFBF7A5F88DF82B209DF8CC
:1060D0002B00092805DCFFE79DF82B0030300990E4
:1060E0000CE09DF8B00081066120002948BF4120E6
:1060F0009DF82B1008440A380990FFE709980B9A7D
:10610000511C0B910CA98854149A159B1898199935
:10611000FBF780F819911890FFE718981999014337
:106120000020089039B1FFE70B990020202938BFE3
:1061300001200890FFE70898C0070028BFD1FFE7BB
:10614000FFE71D981C991B9A1A9BDDF82CC0149D23
:106150002A9E2B9FDDF8B0809DF85F40EE46CEF87A
:106160001880CEF81470CEF81060CEF80C5004F001
:106170000104CEF80840CEF804C00DF1300CCEF882
:1061800000C0FFF7BFFD1EB0BDE8F08184B08DF800
:106190000F0002910192009301980099884206D263
:1061A000FFE79DF80F000299019A8854FFE704B0B9
:1061B0007047000084B08DF80F00029101920093A7
:1061C00004B0704780B586B0DDF82CC0DDF828C07B
:1061D000DDF824C0DDF820C00590049103920293FD
:1061E000039801909DF82C00800700281CD4FFE73D
:1061F0009DF82C00C007B8B9FFE709980090FFE7A9
:1062000000980A9988420ED2FFE7DDF814C004997D
:10621000039A501C0390029B2020E047FFE7009860
:1062200001300090ECE7FFE7FFE7099870B1FFE766
:10623000DDF814C00898099901390991405C049966
:10624000039A531C0393029BE047EEE79DF82C0052
:106250008007002813D5FFE7FFE703980199401A4C
:106260000A9988420AD2FFE7DDF814C00499039A1C
:10627000501C0390029B2020E047EEE7FFE70398C5
:1062800006B080BD84B00390029103980190FFE7AF
:10629000019801780020009041B1FFE70298411E6B
:1062A0000291002818BF01200090FFE70098C00766
:1062B00028B1FFE7FFE7019801300190E8E7019876
:1062C0000399401A04B0704780B588B006900591D4
:1062D000049206980390FFE7039820B9FFE7FFE7D1
:1062E000FFE7FFE7FEE7FFE7FFE7059820B9FFE7D5
:1062F000FFE7FFE7FFE7FEE7FFE7039818B1FFE7D7
:10630000059818B9FFE7002007901EE0039805994B
:10631000049A01F0B7FC0290029818B9FFE7002038
:10632000079012E002980069069949681BF058FD31
:1063300001900398C16B0598884702460699C86882
:106340001044C86001980790FFE7079808B080BD27
:1063500080B58EB0DDF840C00D900C910B920A9381
:106360000B990C9A06A819F025F800283FD0FFE7F2
:106370000D9A109807990B9B5B68C91A00FB0120C6
:10638000059006980B990968411A059808440590EC
:106390000A98069908440C990968401A049006A8BE
:1063A00018F0E4FF029000200390FFE703980299A1
:1063B00088421BD2FFE70498039A805C0599895CA8
:1063C000084401900198B0F5807F03D3FFE7FF20D8
:1063D000009002E001980090FFE700980499039A6A
:1063E0008854FFE7039801300390DFE7FFE70EB022
:1063F00080BD000080B586B0059004910020039018
:106400000598C8B1FFE70598049901F0FFFB0290D9
:1064100002990020B0EBD14F0DD1FFE702980D2873
:1064200003D3FFE70298019002E00C200190FFE700
:1064300001980390FFE7FFE7039806B080BD0000D6
:1064400080B598B017901798406816901798806894
:106450001590179890F824008DF85300179800684D
:1064600013901798C0681290179880691190179828
:10647000C0691090179800690F90179840690E90A6
:106480000CA81DF001FC1798806A002840F02481B8
:10649000FFE70F98B8BBFFE79DF85300FD2832DBFC
:1064A000FFE700200A90FFE70A981599884229DA49
:1064B000FFE700200B90FFE70B981699884212DA4D
:1064C000FFE711980B9A139901EB420130F8120083
:1064D000ADF8240009980CAA1CF07AFEFFE70B988F
:1064E00001300B90E8E7139812990BF0D9FF139045
:1064F000119810990BF0D4FF1190FFE70A98013022
:106500000A90D1E7E7E00F98002844D1FFE79DF813
:106510005300FC283FDCFFE700200A90FFE70A98C1
:106520001599884236DAFFE700200B90FFE70B98B9
:10653000169988421FDAFFE711980B9930F811007D
:10654000ADF820009DF821009DF853104843000A43
:106550008DF8210013980B9900EB4101BDF8200044
:10656000ADF81C0007980CAA1CF032FEFFE70B9850
:1065700001300B90DBE7139812990BF091FF139009
:10658000119810990BF08CFF1190FFE70A980130D9
:106590000A90C4E79EE00F98002849D0FFE79DF8D5
:1065A0005300FD2844DBFFE700200A90FFE70A982C
:1065B000159988423BDAFFE700200B90FFE70B9824
:1065C0001699884220DAFFE711980B9930F81100EC
:1065D000ADF818009DF819000F990B9A895C484393
:1065E000000A8DF8190013980B9900EB4101BDF8D2
:1065F0001800ADF8140005980CAA1CF0E9FDFFE79F
:106600000B9801300B90DAE7139812990BF048FFC2
:106610001390119810990BF043FF11900E990F9859
:1066200008440F90FFE70A9801300A90BFE750E056
:106630000F9800284CD0FFE79DF85300FC2847DC5A
:10664000FFE700200A90FFE70A98159988423EDA92
:10665000FFE700200B90FFE70B981699884223DA9A
:10666000FFE711980B9930F81100ADF810009DF874
:1066700011000F990B9A895C48439DF853104843C9
:10668000000C8DF8110013980B9900EB4101BDF837
:106690001000ADF80C0003980CAA1CF099FDFFE760
:1066A0000B9801300B90D7E7139812990BF0F8FE76
:1066B0001390119810990BF0F3FE11900E990F980A
:1066C00008440F90FFE70A9801300A90BCE7FFE703
:1066D000FFE7FFE7FFE759E000200A90FFE70A988D
:1066E0001599884251DAFFE700200B90FFE70B98DD
:1066F0001699884232DAFFE711980B9930F81100A9
:10670000ADF808000F9848B9FFE79DF809009DF81B
:1067100053104843000A8DF809000CE09DF8090069
:106720000F990B9A895C48439DF853104843000C1D
:106730008DF80900FFE713980B9900EB41001799BA
:106740008A6ABDF80810ADF8041001990CAB03F08B
:1067500023FAFFE70B9801300B90C8E70F9828B198
:10676000FFE70E990F9808440F90FFE713981299CE
:106770000BF096FE1390119810990BF091FE11906A
:10678000FFE70A9801300A90A9E7FFE718B080BD3B
:1067900080B592B01190119840681090119880685F
:1067A0000F90119890F824008DF83B001198006824
:1067B0000D901198C0680C90119880690B901198F9
:1067C000C0690A9011980069099011984069089071
:1067D0001198806A002840F01B81FFE70998D8BB18
:1067E000FFE79DF83B00FD2836DBFFE70020059022
:1067F000FFE705980F9988422DDAFFE70020079000
:106800000690FFE706981099884215DAFFE70B9883
:10681000069900EB410210F811000D99079B01EB5E
:10682000830152781CF058FFFFE70798013007906A
:10683000069801300690E5E70D980C990BF038FEAC
:106840000D900B980A990BF033FE0B90FFE705981B
:1068500001300590CDE7DAE0099800283FD1FFE745
:106860009DF83B00FC283ADCFFE700200590FFE79D
:1068700005980F99884231DAFFE7002007900690CB
:10688000FFE706981099884219DAFFE70B980699F6
:1068900000EB410210F811000D99079B01EB8301F9
:1068A00052789DF83B305A43120A1CF015FFFFE75F
:1068B000079801300790069801300690E1E70D989F
:1068C0000C990BF0F5FD0D900B980A990BF0F0FD6B
:1068D0000B90FFE7059801300590C9E796E009980D
:1068E000002845D0FFE79DF83B00FD2840DBFFE78F
:1068F00000200590FFE705980F99884237DAFFE7F7
:10690000002007900690FFE70698109988421BDA4E
:10691000FFE70B98DDF818C000EB4C0210F81C00E4
:106920000D99079B01EB83015278099B13F80C30FA
:106930005A43120A1CF0D0FEFFE707980130079077
:10694000069801300690DFE70D980C990BF0B0FD2A
:106950000D900B980A990BF0ABFD0B9008990998D4
:1069600008440990FFE7059801300590C3E74CE023
:106970000998002848D0FFE79DF83B00FC2843DC3D
:10698000FFE700200590FFE705980F9988423ADA63
:10699000FFE7002007900690FFE7069810998842CD
:1069A0001EDAFFE70B98DDF818C000EB4C0210F878
:1069B0001C000D99079B01EB83015278099B13F88A
:1069C0000C305A439DF83B305A43120C1CF084FEA5
:1069D000FFE7079801300790069801300690DCE742
:1069E0000D980C990BF064FD0D900B980A990BF023
:1069F0005FFD0B900899099808440990FFE70598F6
:106A000001300590C0E7FFE7FFE7FFE7FFE76EE033
:106A100068461DF053F900200590FFE705980F998F
:106A2000884263DAFFE7002007900690FFE70698A8
:106A30001099884243DAFFE70B98069910F8110085
:106A40008DF812000B98069910F811008DF81100BE
:106A50000B98069910F811008DF81000099860B98C
:106A6000FFE70B98069900EB410040789DF83B103A
:106A70004843000A8DF813000FE00B98069900EBCD
:106A8000410040780999079A895C48439DF83B107A
:106A90004843000C8DF81300FFE70D98079900EBB1
:106AA000810011998A6A04996B4603F0D5F8FFE7D3
:106AB000079801300790069801300690B7E70998CB
:106AC00028B1FFE70899099808440990FFE70D9855
:106AD0000C990BF0EDFC0D900B980A990BF0E8FC6B
